{
  "_format": "hh-sol-artifact-1",
  "contractName": "CertiChain",
  "sourceName": "contracts/CertiChain.sol",
  "abi": [
    {
      "inputs": [],
      "stateMutability": "nonpayable",
      "type": "constructor"
    },
    {
      "anonymous": false,
      "inputs": [
        {
          "indexed": false,
          "internalType": "string",
          "name": "certificateId",
          "type": "string"
        },
        {
          "indexed": false,
          "internalType": "address",
          "name": "issuedBy",
          "type": "address"
        }
      ],
      "name": "CertificateIssued",
      "type": "event"
    },
    {
      "anonymous": false,
      "inputs": [
        {
          "indexed": false,
          "internalType": "string",
          "name": "certificateId",
          "type": "string"
        }
      ],
      "name": "CertificateRevoked",
      "type": "event"
    },
    {
      "inputs": [
        {
          "internalType": "string",
          "name": "",
          "type": "string"
        }
      ],
      "name": "certificates",
      "outputs": [
        {
          "internalType": "string",
          "name": "certificateId",
          "type": "string"
        },
        {
          "internalType": "string",
          "name": "studentName",
          "type": "string"
        },
        {
          "internalType": "string",
          "name": "institutionName",
          "type": "string"
        },
        {
          "internalType": "string",
          "name": "courseName",
          "type": "string"
        },
        {
          "internalType": "string",
          "name": "branch",
          "type": "string"
        },
        {
          "internalType": "uint16",
          "name": "passOutYear",
          "type": "uint16"
        },
        {
          "internalType": "uint256",
          "name": "issueDate",
          "type": "uint256"
        },
        {
          "internalType": "string",
          "name": "ipfsHash",
          "type": "string"
        },
        {
          "internalType": "address",
          "name": "issuedBy",
          "type": "address"
        },
        {
          "internalType": "bool",
          "name": "isRevoked",
          "type": "bool"
        }
      ],
      "stateMutability": "view",
      "type": "function"
    },
    {
      "inputs": [
        {
          "internalType": "string",
          "name": "certificateId",
          "type": "string"
        }
      ],
      "name": "getCertificate",
      "outputs": [
        {
          "components": [
            {
              "internalType": "string",
              "name": "certificateId",
              "type": "string"
            },
            {
              "internalType": "string",
              "name": "studentName",
              "type": "string"
            },
            {
              "internalType": "string",
              "name": "institutionName",
              "type": "string"
            },
            {
              "internalType": "string",
              "name": "courseName",
              "type": "string"
            },
            {
              "internalType": "string",
              "name": "branch",
              "type": "string"
            },
            {
              "internalType": "uint16",
              "name": "passOutYear",
              "type": "uint16"
            },
            {
              "internalType": "uint256",
              "name": "issueDate",
              "type": "uint256"
            },
            {
              "internalType": "string",
              "name": "ipfsHash",
              "type": "string"
            },
            {
              "internalType": "address",
              "name": "issuedBy",
              "type": "address"
            },
            {
              "internalType": "bool",
              "name": "isRevoked",
              "type": "bool"
            }
          ],
          "internalType": "struct CertiChain.Certificate",
          "name": "",
          "type": "tuple"
        }
      ],
      "stateMutability": "view",
      "type": "function"
    },
    {
      "inputs": [
        {
          "internalType": "string",
          "name": "certificateId",
          "type": "string"
        },
        {
          "internalType": "string",
          "name": "studentName",
          "type": "string"
        },
        {
          "internalType": "string",
          "name": "institutionName",
          "type": "string"
        },
        {
          "internalType": "string",
          "name": "courseName",
          "type": "string"
        },
        {
          "internalType": "string",
          "name": "branch",
          "type": "string"
        },
        {
          "internalType": "uint16",
          "name": "passOutYear",
          "type": "uint16"
        },
        {
          "internalType": "uint256",
          "name": "issueDate",
          "type": "uint256"
        },
        {
          "internalType": "string",
          "name": "ipfsHash",
          "type": "string"
        }
      ],
      "name": "issueCertificate",
      "outputs": [],
      "stateMutability": "nonpayable",
      "type": "function"
    },
    {
      "inputs": [],
      "name": "owner",
      "outputs": [
        {
          "internalType": "address",
          "name": "",
          "type": "address"
        }
      ],
      "stateMutability": "view",
      "type": "function"
    },
    {
      "inputs": [
        {
          "internalType": "string",
          "name": "certificateId",
          "type": "string"
        }
      ],
      "name": "revokeCertificate",
      "outputs": [],
      "stateMutability": "nonpayable",
      "type": "function"
    }
  ],
  "bytecode": "0x608060405234801561001057600080fd5b50336000806101000a81548173ffffffffffffffffffffffffffffffffffffffff021916908373ffffffffffffffffffffffffffffffffffffffff1602179055506119bc806100606000396000f3fe608060405234801561001057600080fd5b50600436106100575760003560e01c8063142e15421461005c5780638da5cb5b146100785780638f2b91ea14610096578063ed0f2e75146100cf578063ef04953a146100ff575b600080fd5b61007660048036038101906100719190610f29565b61011b565b005b6100806102d0565b60405161008d9190610fb3565b60405180910390f35b6100b060048036038101906100ab9190610f29565b6102f4565b6040516100c69a9998979695949392919061109e565b60405180910390f35b6100e960048036038101906100e49190610f29565b6106c9565b6040516100f691906112e7565b60405180910390f35b61011960048036038101906101149190611361565b610b09565b005b600060018260405161012d91906114fb565b908152602001604051809103902090503373ffffffffffffffffffffffffffffffffffffffff168160080160009054906101000a900473ffffffffffffffffffffffffffffffffffffffff1673ffffffffffffffffffffffffffffffffffffffff1614806101e6575060008054906101000a900473ffffffffffffffffffffffffffffffffffffffff1673ffffffffffffffffffffffffffffffffffffffff163373ffffffffffffffffffffffffffffffffffffffff16145b610225576040517f08c379a000000000000000000000000000000000000000000000000000000000815260040161021c9061155e565b60405180910390fd5b6000816000018054610236906115ad565b905003610278576040517f08c379a000000000000000000000000000000000000000000000000000000000815260040161026f9061162a565b60405180910390fd5b60018160080160146101000a81548160ff0219169083151502179055507f266095b5af7e2323760fef151f1d78896740cd2cc1b73a6357ff9e4c3fdae740826040516102c4919061164a565b60405180910390a15050565b60008054906101000a900473ffffffffffffffffffffffffffffffffffffffff1681565b60018180516020810182018051848252602083016020850120818352809550505050505060009150905080600001805461032d906115ad565b80601f0160208091040260200160405190810160405280929190818152602001828054610359906115ad565b80156103a65780601f1061037b576101008083540402835291602001916103a6565b820191906000526020600020905b81548152906001019060200180831161038957829003601f168201915b5050505050908060010180546103bb906115ad565b80601f01602080910402602001604051908101604052809291908181526020018280546103e7906115ad565b80156104345780601f1061040957610100808354040283529160200191610434565b820191906000526020600020905b81548152906001019060200180831161041757829003601f168201915b505050505090806002018054610449906115ad565b80601f0160208091040260200160405190810160405280929190818152602001828054610475906115ad565b80156104c25780601f10610497576101008083540402835291602001916104c2565b820191906000526020600020905b8154815290600101906020018083116104a557829003601f168201915b5050505050908060030180546104d7906115ad565b80601f0160208091040260200160405190810160405280929190818152602001828054610503906115ad565b80156105505780601f1061052557610100808354040283529160200191610550565b820191906000526020600020905b81548152906001019060200180831161053357829003601f168201915b505050505090806004018054610565906115ad565b80601f0160208091040260200160405190810160405280929190818152602001828054610591906115ad565b80156105de5780601f106105b3576101008083540402835291602001916105de565b820191906000526020600020905b8154815290600101906020018083116105c157829003601f168201915b5050505050908060050160009054906101000a900461ffff169080600601549080600701805461060d906115ad565b80601f0160208091040260200160405190810160405280929190818152602001828054610639906115ad565b80156106865780601f1061065b57610100808354040283529160200191610686565b820191906000526020600020905b81548152906001019060200180831161066957829003601f168201915b5050505050908060080160009054906101000a900473ffffffffffffffffffffffffffffffffffffffff16908060080160149054906101000a900460ff1690508a565b6106d1610d60565b6001826040516106e191906114fb565b90815260200160405180910390206040518061014001604052908160008201805461070b906115ad565b80601f0160208091040260200160405190810160405280929190818152602001828054610737906115ad565b80156107845780601f1061075957610100808354040283529160200191610784565b820191906000526020600020905b81548152906001019060200180831161076757829003601f168201915b5050505050815260200160018201805461079d906115ad565b80601f01602080910402602001604051908101604052809291908181526020018280546107c9906115ad565b80156108165780601f106107eb57610100808354040283529160200191610816565b820191906000526020600020905b8154815290600101906020018083116107f957829003601f168201915b5050505050815260200160028201805461082f906115ad565b80601f016020809104026020016040519081016040528092919081815260200182805461085b906115ad565b80156108a85780601f1061087d576101008083540402835291602001916108a8565b820191906000526020600020905b81548152906001019060200180831161088b57829003601f168201915b505050505081526020016003820180546108c1906115ad565b80601f01602080910402602001604051908101604052809291908181526020018280546108ed906115ad565b801561093a5780601f1061090f5761010080835404028352916020019161093a565b820191906000526020600020905b81548152906001019060200180831161091d57829003601f168201915b50505050508152602001600482018054610953906115ad565b80601f016020809104026020016040519081016040528092919081815260200182805461097f906115ad565b80156109cc5780601f106109a1576101008083540402835291602001916109cc565b820191906000526020600020905b8154815290600101906020018083116109af57829003601f168201915b505050505081526020016005820160009054906101000a900461ffff1661ffff1661ffff16815260200160068201548152602001600782018054610a0f906115ad565b80601f0160208091040260200160405190810160405280929190818152602001828054610a3b906115ad565b8015610a885780601f10610a5d57610100808354040283529160200191610a88565b820191906000526020600020905b815481529060010190602001808311610a6b57829003601f168201915b505050505081526020016008820160009054906101000a900473ffffffffffffffffffffffffffffffffffffffff1673ffffffffffffffffffffffffffffffffffffffff1673ffffffffffffffffffffffffffffffffffffffff1681526020016008820160149054906101000a900460ff1615151515815250509050919050565b6000600189604051610b1b91906114fb565b908152602001604051809103902090506000816000018054610b3c906115ad565b905014610b7e576040517f08c379a0000000000000000000000000000000000000000000000000000000008152600401610b75906116b8565b60405180910390fd5b6040518061014001604052808a81526020018981526020018881526020018781526020018681526020018561ffff1681526020018481526020018381526020013373ffffffffffffffffffffffffffffffffffffffff1681526020016000151581525060018a604051610bf191906114fb565b90815260200160405180910390206000820151816000019081610c149190611884565b506020820151816001019081610c2a9190611884565b506040820151816002019081610c409190611884565b506060820151816003019081610c569190611884565b506080820151816004019081610c6c9190611884565b5060a08201518160050160006101000a81548161ffff021916908361ffff16021790555060c0820151816006015560e0820151816007019081610caf9190611884565b506101008201518160080160006101000a81548173ffffffffffffffffffffffffffffffffffffffff021916908373ffffffffffffffffffffffffffffffffffffffff1602179055506101208201518160080160146101000a81548160ff0219169083151502179055509050507fada8a8d27187fe2bc19217fb8e0301fa8380a4d850748240b8d735f2a8fc06218933604051610d4d929190611956565b60405180910390a1505050505050505050565b6040518061014001604052806060815260200160608152602001606081526020016060815260200160608152602001600061ffff1681526020016000815260200160608152602001600073ffffffffffffffffffffffffffffffffffffffff1681526020016000151581525090565b6000604051905090565b600080fd5b600080fd5b600080fd5b600080fd5b6000601f19601f8301169050919050565b7f4e487b7100000000000000000000000000000000000000000000000000000000600052604160045260246000fd5b610e3682610ded565b810181811067ffffffffffffffff82111715610e5557610e54610dfe565b5b80604052505050565b6000610e68610dcf565b9050610e748282610e2d565b919050565b600067ffffffffffffffff821115610e9457610e93610dfe565b5b610e9d82610ded565b9050602081019050919050565b82818337600083830152505050565b6000610ecc610ec784610e79565b610e5e565b905082815260208101848484011115610ee857610ee7610de8565b5b610ef3848285610eaa565b509392505050565b600082601f830112610f1057610f0f610de3565b5b8135610f20848260208601610eb9565b91505092915050565b600060208284031215610f3f57610f3e610dd9565b5b600082013567ffffffffffffffff811115610f5d57610f5c610dde565b5b610f6984828501610efb565b91505092915050565b600073ffffffffffffffffffffffffffffffffffffffff82169050919050565b6000610f9d82610f72565b9050919050565b610fad81610f92565b82525050565b6000602082019050610fc86000830184610fa4565b92915050565b600081519050919050565b600082825260208201905092915050565b60005b83811015611008578082015181840152602081019050610fed565b60008484015250505050565b600061101f82610fce565b6110298185610fd9565b9350611039818560208601610fea565b61104281610ded565b840191505092915050565b600061ffff82169050919050565b6110648161104d565b82525050565b6000819050919050565b61107d8161106a565b82525050565b60008115159050919050565b61109881611083565b82525050565b60006101408201905081810360008301526110b9818d611014565b905081810360208301526110cd818c611014565b905081810360408301526110e1818b611014565b905081810360608301526110f5818a611014565b905081810360808301526111098189611014565b905061111860a083018861105b565b61112560c0830187611074565b81810360e08301526111378186611014565b9050611147610100830185610fa4565b61115561012083018461108f565b9b9a5050505050505050505050565b600082825260208201905092915050565b600061118082610fce565b61118a8185611164565b935061119a818560208601610fea565b6111a381610ded565b840191505092915050565b6111b78161104d565b82525050565b6111c68161106a565b82525050565b6111d581610f92565b82525050565b6111e481611083565b82525050565b60006101408301600083015184820360008601526112088282611175565b915050602083015184820360208601526112228282611175565b9150506040830151848203604086015261123c8282611175565b915050606083015184820360608601526112568282611175565b915050608083015184820360808601526112708282611175565b91505060a083015161128560a08601826111ae565b5060c083015161129860c08601826111bd565b5060e083015184820360e08601526112b08282611175565b9150506101008301516112c76101008601826111cc565b506101208301516112dc6101208601826111db565b508091505092915050565b6000602082019050818103600083015261130181846111ea565b905092915050565b6113128161104d565b811461131d57600080fd5b50565b60008135905061132f81611309565b92915050565b61133e8161106a565b811461134957600080fd5b50565b60008135905061135b81611335565b92915050565b600080600080600080600080610100898b03121561138257611381610dd9565b5b600089013567ffffffffffffffff8111156113a05761139f610dde565b5b6113ac8b828c01610efb565b985050602089013567ffffffffffffffff8111156113cd576113cc610dde565b5b6113d98b828c01610efb565b975050604089013567ffffffffffffffff8111156113fa576113f9610dde565b5b6114068b828c01610efb565b965050606089013567ffffffffffffffff81111561142757611426610dde565b5b6114338b828c01610efb565b955050608089013567ffffffffffffffff81111561145457611453610dde565b5b6114608b828c01610efb565b94505060a06114718b828c01611320565b93505060c06114828b828c0161134c565b92505060e089013567ffffffffffffffff8111156114a3576114a2610dde565b5b6114af8b828c01610efb565b9150509295985092959890939650565b600081905092915050565b60006114d582610fce565b6114df81856114bf565b93506114ef818560208601610fea565b80840191505092915050565b600061150782846114ca565b915081905092915050565b7f4e6f7420616c6c6f776564000000000000000000000000000000000000000000600082015250565b6000611548600b83610fd9565b915061155382611512565b602082019050919050565b600060208201905081810360008301526115778161153b565b9050919050565b7f4e487b7100000000000000000000000000000000000000000000000000000000600052602260045260246000fd5b600060028204905060018216806115c557607f821691505b6020821081036115d8576115d761157e565b5b50919050565b7f4e6f7420666f756e640000000000000000000000000000000000000000000000600082015250565b6000611614600983610fd9565b915061161f826115de565b602082019050919050565b6000602082019050818103600083015261164381611607565b9050919050565b600060208201905081810360008301526116648184611014565b905092915050565b7f436572746966696361746520616c726561647920657869737473000000000000600082015250565b60006116a2601a83610fd9565b91506116ad8261166c565b602082019050919050565b600060208201905081810360008301526116d181611695565b9050919050565b60008190508160005260206000209050919050565b60006020601f8301049050919050565b600082821b905092915050565b60006008830261173a7fffffffffffffffffffffffffffffffffffffffffffffffffffffffffffffffff826116fd565b61174486836116fd565b95508019841693508086168417925050509392505050565b6000819050919050565b600061178161177c6117778461106a565b61175c565b61106a565b9050919050565b6000819050919050565b61179b83611766565b6117af6117a782611788565b84845461170a565b825550505050565b600090565b6117c46117b7565b6117cf818484611792565b505050565b5b818110156117f3576117e86000826117bc565b6001810190506117d5565b5050565b601f82111561183857611809816116d8565b611812846116ed565b81016020851015611821578190505b61183561182d856116ed565b8301826117d4565b50505b505050565b600082821c905092915050565b600061185b6000198460080261183d565b1980831691505092915050565b6000611874838361184a565b9150826002028217905092915050565b61188d82610fce565b67ffffffffffffffff8111156118a6576118a5610dfe565b5b6118b082546115ad565b6118bb8282856117f7565b600060209050601f8311600181146118ee57600084156118dc578287015190505b6118e68582611868565b86555061194e565b601f1984166118fc866116d8565b60005b82811015611924578489015182556001820191506020850194506020810190506118ff565b86831015611941578489015161193d601f89168261184a565b8355505b6001600288020188555050505b505050505050565b600060408201905081810360008301526119708185611014565b905061197f6020830184610fa4565b939250505056fea2646970667358221220f0d051ed505846cddd92e92e35fdbc1feb63d9d477fa4b04a1ce6c29158e5de064736f6c63430008140033",
  "linkReferences": {},
  "deployedLinkReferences": {}
}